{
  "_format": "hh-sol-artifact-1",
  "contractName": "JustArtMarket",
  "sourceName": "contracts/justArtMarket.sol",
  "abi": [
    {
      "inputs": [
        {
          "internalType": "uint256",
          "name": "_marketFeePercentage",
          "type": "uint256"
        },
        {
          "internalType": "address",
          "name": "_marketToken",
          "type": "address"
        }
      ],
      "stateMutability": "nonpayable",
      "type": "constructor"
    },
    {
      "anonymous": false,
      "inputs": [
        {
          "indexed": true,
          "internalType": "address",
          "name": "owner",
          "type": "address"
        },
        {
          "indexed": true,
          "internalType": "address",
          "name": "approved",
          "type": "address"
        },
        {
          "indexed": true,
          "internalType": "uint256",
          "name": "tokenId",
          "type": "uint256"
        }
      ],
      "name": "Approval",
      "type": "event"
    },
    {
      "anonymous": false,
      "inputs": [
        {
          "indexed": true,
          "internalType": "address",
          "name": "owner",
          "type": "address"
        },
        {
          "indexed": true,
          "internalType": "address",
          "name": "operator",
          "type": "address"
        },
        {
          "indexed": false,
          "internalType": "bool",
          "name": "approved",
          "type": "bool"
        }
      ],
      "name": "ApprovalForAll",
      "type": "event"
    },
    {
      "anonymous": false,
      "inputs": [
        {
          "indexed": true,
          "internalType": "address",
          "name": "owner",
          "type": "address"
        },
        {
          "indexed": false,
          "internalType": "string",
          "name": "itemStringId",
          "type": "string"
        },
        {
          "indexed": false,
          "internalType": "uint256",
          "name": "price",
          "type": "uint256"
        }
      ],
      "name": "ItemCreated",
      "type": "event"
    },
    {
      "anonymous": false,
      "inputs": [
        {
          "indexed": true,
          "internalType": "address",
          "name": "owner",
          "type": "address"
        },
        {
          "indexed": false,
          "internalType": "string",
          "name": "itemStringId",
          "type": "string"
        },
        {
          "indexed": false,
          "internalType": "uint256",
          "name": "price",
          "type": "uint256"
        }
      ],
      "name": "ItemRelisted",
      "type": "event"
    },
    {
      "anonymous": false,
      "inputs": [
        {
          "indexed": true,
          "internalType": "address",
          "name": "owner",
          "type": "address"
        },
        {
          "indexed": false,
          "internalType": "string",
          "name": "itemStringId",
          "type": "string"
        }
      ],
      "name": "ItemRemoved",
      "type": "event"
    },
    {
      "anonymous": false,
      "inputs": [
        {
          "indexed": true,
          "internalType": "address",
          "name": "buyer",
          "type": "address"
        },
        {
          "indexed": false,
          "internalType": "string",
          "name": "itemStringId",
          "type": "string"
        },
        {
          "indexed": false,
          "internalType": "uint256",
          "name": "price",
          "type": "uint256"
        }
      ],
      "name": "ItemSold",
      "type": "event"
    },
    {
      "anonymous": false,
      "inputs": [
        {
          "indexed": false,
          "internalType": "address",
          "name": "owner",
          "type": "address"
        },
        {
          "indexed": false,
          "internalType": "uint256",
          "name": "newPercentage",
          "type": "uint256"
        }
      ],
      "name": "NewMarketFee",
      "type": "event"
    },
    {
      "anonymous": false,
      "inputs": [
        {
          "indexed": true,
          "internalType": "address",
          "name": "previousOwner",
          "type": "address"
        },
        {
          "indexed": true,
          "internalType": "address",
          "name": "newOwner",
          "type": "address"
        }
      ],
      "name": "OwnershipTransferred",
      "type": "event"
    },
    {
      "anonymous": false,
      "inputs": [
        {
          "indexed": true,
          "internalType": "address",
          "name": "from",
          "type": "address"
        },
        {
          "indexed": true,
          "internalType": "address",
          "name": "to",
          "type": "address"
        },
        {
          "indexed": true,
          "internalType": "uint256",
          "name": "tokenId",
          "type": "uint256"
        }
      ],
      "name": "Transfer",
      "type": "event"
    },
    {
      "inputs": [
        {
          "internalType": "uint256",
          "name": "",
          "type": "uint256"
        }
      ],
      "name": "Items",
      "outputs": [
        {
          "internalType": "string",
          "name": "id",
          "type": "string"
        },
        {
          "internalType": "uint256",
          "name": "price",
          "type": "uint256"
        },
        {
          "internalType": "string",
          "name": "location",
          "type": "string"
        },
        {
          "internalType": "address",
          "name": "owner",
          "type": "address"
        },
        {
          "internalType": "bool",
          "name": "isItemListed",
          "type": "bool"
        }
      ],
      "stateMutability": "view",
      "type": "function"
    },
    {
      "inputs": [
        {
          "internalType": "string",
          "name": "_itemStringId",
          "type": "string"
        },
        {
          "internalType": "string",
          "name": "_uri",
          "type": "string"
        },
        {
          "internalType": "string",
          "name": "_location",
          "type": "string"
        },
        {
          "internalType": "uint256",
          "name": "_price",
          "type": "uint256"
        }
      ],
      "name": "addNewItem",
      "outputs": [],
      "stateMutability": "nonpayable",
      "type": "function"
    },
    {
      "inputs": [
        {
          "internalType": "address",
          "name": "to",
          "type": "address"
        },
        {
          "internalType": "uint256",
          "name": "tokenId",
          "type": "uint256"
        }
      ],
      "name": "approve",
      "outputs": [],
      "stateMutability": "nonpayable",
      "type": "function"
    },
    {
      "inputs": [
        {
          "internalType": "address",
          "name": "",
          "type": "address"
        }
      ],
      "name": "balance",
      "outputs": [
        {
          "internalType": "uint256",
          "name": "",
          "type": "uint256"
        }
      ],
      "stateMutability": "view",
      "type": "function"
    },
    {
      "inputs": [
        {
          "internalType": "address",
          "name": "owner",
          "type": "address"
        }
      ],
      "name": "balanceOf",
      "outputs": [
        {
          "internalType": "uint256",
          "name": "",
          "type": "uint256"
        }
      ],
      "stateMutability": "view",
      "type": "function"
    },
    {
      "inputs": [
        {
          "internalType": "uint256",
          "name": "_itemTokenId",
          "type": "uint256"
        }
      ],
      "name": "buyItems",
      "outputs": [],
      "stateMutability": "payable",
      "type": "function"
    },
    {
      "inputs": [
        {
          "internalType": "uint256",
          "name": "",
          "type": "uint256"
        }
      ],
      "name": "exists",
      "outputs": [
        {
          "internalType": "bool",
          "name": "",
          "type": "bool"
        }
      ],
      "stateMutability": "view",
      "type": "function"
    },
    {
      "inputs": [
        {
          "internalType": "uint256",
          "name": "tokenId",
          "type": "uint256"
        }
      ],
      "name": "getApproved",
      "outputs": [
        {
          "internalType": "address",
          "name": "",
          "type": "address"
        }
      ],
      "stateMutability": "view",
      "type": "function"
    },
    {
      "inputs": [],
      "name": "getItemCounts",
      "outputs": [
        {
          "internalType": "uint256",
          "name": "",
          "type": "uint256"
        }
      ],
      "stateMutability": "view",
      "type": "function"
    },
    {
      "inputs": [
        {
          "internalType": "uint256",
          "name": "_itemTokenId",
          "type": "uint256"
        }
      ],
      "name": "getItemFromID",
      "outputs": [
        {
          "components": [
            {
              "internalType": "string",
              "name": "id",
              "type": "string"
            },
            {
              "internalType": "uint256",
              "name": "price",
              "type": "uint256"
            },
            {
              "internalType": "string",
              "name": "location",
              "type": "string"
            },
            {
              "internalType": "address",
              "name": "owner",
              "type": "address"
            },
            {
              "internalType": "bool",
              "name": "isItemListed",
              "type": "bool"
            },
            {
              "components": [
                {
                  "internalType": "uint256",
                  "name": "id",
                  "type": "uint256"
                },
                {
                  "internalType": "enum JustArtMarket.Type",
                  "name": "tranType",
                  "type": "uint8"
                },
                {
                  "internalType": "address",
                  "name": "from",
                  "type": "address"
                },
                {
                  "internalType": "uint256",
                  "name": "price",
                  "type": "uint256"
                },
                {
                  "internalType": "uint256",
                  "name": "createdAt",
                  "type": "uint256"
                }
              ],
              "internalType": "struct JustArtMarket.Transaction[]",
              "name": "history",
              "type": "tuple[]"
            }
          ],
          "internalType": "struct JustArtMarket.Item",
          "name": "",
          "type": "tuple"
        }
      ],
      "stateMutability": "view",
      "type": "function"
    },
    {
      "inputs": [],
      "name": "getMarketFee",
      "outputs": [
        {
          "internalType": "uint256",
          "name": "",
          "type": "uint256"
        }
      ],
      "stateMutability": "view",
      "type": "function"
    },
    {
      "inputs": [
        {
          "internalType": "address",
          "name": "_user",
          "type": "address"
        }
      ],
      "name": "getUserItems",
      "outputs": [
        {
          "components": [
            {
              "internalType": "string",
              "name": "id",
              "type": "string"
            },
            {
              "internalType": "uint256",
              "name": "price",
              "type": "uint256"
            },
            {
              "internalType": "string",
              "name": "location",
              "type": "string"
            },
            {
              "internalType": "address",
              "name": "owner",
              "type": "address"
            },
            {
              "internalType": "bool",
              "name": "isItemListed",
              "type": "bool"
            },
            {
              "components": [
                {
                  "internalType": "uint256",
                  "name": "id",
                  "type": "uint256"
                },
                {
                  "internalType": "enum JustArtMarket.Type",
                  "name": "tranType",
                  "type": "uint8"
                },
                {
                  "internalType": "address",
                  "name": "from",
                  "type": "address"
                },
                {
                  "internalType": "uint256",
                  "name": "price",
                  "type": "uint256"
                },
                {
                  "internalType": "uint256",
                  "name": "createdAt",
                  "type": "uint256"
                }
              ],
              "internalType": "struct JustArtMarket.Transaction[]",
              "name": "history",
              "type": "tuple[]"
            }
          ],
          "internalType": "struct JustArtMarket.Item[]",
          "name": "",
          "type": "tuple[]"
        }
      ],
      "stateMutability": "view",
      "type": "function"
    },
    {
      "inputs": [
        {
          "internalType": "address",
          "name": "owner",
          "type": "address"
        },
        {
          "internalType": "address",
          "name": "operator",
          "type": "address"
        }
      ],
      "name": "isApprovedForAll",
      "outputs": [
        {
          "internalType": "bool",
          "name": "",
          "type": "bool"
        }
      ],
      "stateMutability": "view",
      "type": "function"
    },
    {
      "inputs": [
        {
          "internalType": "string",
          "name": "",
          "type": "string"
        }
      ],
      "name": "itemStringIds",
      "outputs": [
        {
          "internalType": "uint256",
          "name": "",
          "type": "uint256"
        }
      ],
      "stateMutability": "view",
      "type": "function"
    },
    {
      "inputs": [
        {
          "internalType": "string",
          "name": "_itemStringId",
          "type": "string"
        }
      ],
      "name": "lookUpStringId",
      "outputs": [
        {
          "internalType": "uint256",
          "name": "",
          "type": "uint256"
        }
      ],
      "stateMutability": "view",
      "type": "function"
    },
    {
      "inputs": [],
      "name": "marketToken",
      "outputs": [
        {
          "internalType": "contract IERC20",
          "name": "",
          "type": "address"
        }
      ],
      "stateMutability": "view",
      "type": "function"
    },
    {
      "inputs": [],
      "name": "name",
      "outputs": [
        {
          "internalType": "string",
          "name": "",
          "type": "string"
        }
      ],
      "stateMutability": "view",
      "type": "function"
    },
    {
      "inputs": [],
      "name": "owner",
      "outputs": [
        {
          "internalType": "address",
          "name": "",
          "type": "address"
        }
      ],
      "stateMutability": "view",
      "type": "function"
    },
    {
      "inputs": [
        {
          "internalType": "uint256",
          "name": "tokenId",
          "type": "uint256"
        }
      ],
      "name": "ownerOf",
      "outputs": [
        {
          "internalType": "address",
          "name": "",
          "type": "address"
        }
      ],
      "stateMutability": "view",
      "type": "function"
    },
    {
      "inputs": [
        {
          "internalType": "uint256",
          "name": "_itemTokenId",
          "type": "uint256"
        },
        {
          "internalType": "string",
          "name": "_newLocation",
          "type": "string"
        },
        {
          "internalType": "uint256",
          "name": "_price",
          "type": "uint256"
        }
      ],
      "name": "relistItem",
      "outputs": [],
      "stateMutability": "nonpayable",
      "type": "function"
    },
    {
      "inputs": [],
      "name": "renounceOwnership",
      "outputs": [],
      "stateMutability": "nonpayable",
      "type": "function"
    },
    {
      "inputs": [
        {
          "internalType": "address",
          "name": "from",
          "type": "address"
        },
        {
          "internalType": "address",
          "name": "to",
          "type": "address"
        },
        {
          "internalType": "uint256",
          "name": "tokenId",
          "type": "uint256"
        }
      ],
      "name": "safeTransferFrom",
      "outputs": [],
      "stateMutability": "nonpayable",
      "type": "function"
    },
    {
      "inputs": [
        {
          "internalType": "address",
          "name": "from",
          "type": "address"
        },
        {
          "internalType": "address",
          "name": "to",
          "type": "address"
        },
        {
          "internalType": "uint256",
          "name": "tokenId",
          "type": "uint256"
        },
        {
          "internalType": "bytes",
          "name": "data",
          "type": "bytes"
        }
      ],
      "name": "safeTransferFrom",
      "outputs": [],
      "stateMutability": "nonpayable",
      "type": "function"
    },
    {
      "inputs": [
        {
          "internalType": "address",
          "name": "operator",
          "type": "address"
        },
        {
          "internalType": "bool",
          "name": "approved",
          "type": "bool"
        }
      ],
      "name": "setApprovalForAll",
      "outputs": [],
      "stateMutability": "nonpayable",
      "type": "function"
    },
    {
      "inputs": [
        {
          "internalType": "bytes4",
          "name": "interfaceId",
          "type": "bytes4"
        }
      ],
      "name": "supportsInterface",
      "outputs": [
        {
          "internalType": "bool",
          "name": "",
          "type": "bool"
        }
      ],
      "stateMutability": "view",
      "type": "function"
    },
    {
      "inputs": [],
      "name": "symbol",
      "outputs": [
        {
          "internalType": "string",
          "name": "",
          "type": "string"
        }
      ],
      "stateMutability": "view",
      "type": "function"
    },
    {
      "inputs": [
        {
          "internalType": "uint256",
          "name": "index",
          "type": "uint256"
        }
      ],
      "name": "tokenByIndex",
      "outputs": [
        {
          "internalType": "uint256",
          "name": "",
          "type": "uint256"
        }
      ],
      "stateMutability": "view",
      "type": "function"
    },
    {
      "inputs": [
        {
          "internalType": "address",
          "name": "owner",
          "type": "address"
        },
        {
          "internalType": "uint256",
          "name": "index",
          "type": "uint256"
        }
      ],
      "name": "tokenOfOwnerByIndex",
      "outputs": [
        {
          "internalType": "uint256",
          "name": "",
          "type": "uint256"
        }
      ],
      "stateMutability": "view",
      "type": "function"
    },
    {
      "inputs": [
        {
          "internalType": "uint256",
          "name": "tokenId",
          "type": "uint256"
        }
      ],
      "name": "tokenURI",
      "outputs": [
        {
          "internalType": "string",
          "name": "",
          "type": "string"
        }
      ],
      "stateMutability": "view",
      "type": "function"
    },
    {
      "inputs": [],
      "name": "totalSupply",
      "outputs": [
        {
          "internalType": "uint256",
          "name": "",
          "type": "uint256"
        }
      ],
      "stateMutability": "view",
      "type": "function"
    },
    {
      "inputs": [
        {
          "internalType": "address",
          "name": "from",
          "type": "address"
        },
        {
          "internalType": "address",
          "name": "to",
          "type": "address"
        },
        {
          "internalType": "uint256",
          "name": "tokenId",
          "type": "uint256"
        }
      ],
      "name": "transferFrom",
      "outputs": [],
      "stateMutability": "nonpayable",
      "type": "function"
    },
    {
      "inputs": [
        {
          "internalType": "address",
          "name": "newOwner",
          "type": "address"
        }
      ],
      "name": "transferOwnership",
      "outputs": [],
      "stateMutability": "nonpayable",
      "type": "function"
    },
    {
      "inputs": [
        {
          "internalType": "uint256",
          "name": "_itemTokenId",
          "type": "uint256"
        }
      ],
      "name": "unlistItem",
      "outputs": [],
      "stateMutability": "nonpayable",
      "type": "function"
    },
    {
      "inputs": [
        {
          "internalType": "uint256",
          "name": "newPercentage",
          "type": "uint256"
        }
      ],
      "name": "updateMarketFeePercentage",
      "outputs": [],
      "stateMutability": "nonpayable",
      "type": "function"
    },
    {
      "inputs": [
        {
          "internalType": "address",
          "name": "",
          "type": "address"
        },
        {
          "internalType": "uint256",
          "name": "",
          "type": "uint256"
        }
      ],
      "name": "userItems",
      "outputs": [
        {
          "internalType": "string",
          "name": "",
          "type": "string"
        }
      ],
      "stateMutability": "view",
      "type": "function"
    }
  ],
  "bytecode": "0x60806040523480156200001157600080fd5b5060405162004e6038038062004e60833981016040819052620000349162000201565b604051806040016040528060078152602001661a9d5cdd105c9d60ca1b815250604051806040016040528060048152602001631a90549560e21b8152506200008b62000085620000e760201b60201c565b620000eb565b600180558151620000a49060029060208501906200013b565b508051620000ba9060039060208401906200013b565b5050601480546001600160a01b0319166001600160a01b03939093169290921790915550600e55620002b8565b3390565b600080546001600160a01b038381166001600160a01b0319831681178455604051919092169283917f8be0079c531659141344cd1fd0a4f28419497f9722a3daafe3b4186f6b6457e09190a35050565b828054620001499062000250565b90600052602060002090601f0160209004810192826200016d5760008555620001b8565b82601f106200018857805160ff1916838001178555620001b8565b82800160010185558215620001b8579182015b82811115620001b85782518255916020019190600101906200019b565b50620001c6929150620001ca565b5090565b5b80821115620001c65760008155600101620001cb565b8051620001ee8162000297565b92915050565b8051620001ee81620002b1565b6000806040838503121562000214578182fd5b6200022284838501620001f4565b915060206200023485828601620001e1565b9150509250929050565b60006001600160a01b038216620001ee565b6002810460018216806200026557607f821691505b602082108114156200027b576200027b62000281565b50919050565b634e487b7160e01b600052602260045260246000fd5b620002a2816200023e565b8114620002ae57600080fd5b50565b80620002a2565b614b9880620002c86000396000f3fe6080604052600436106102345760003560e01c806370a0823111610138578063bc22aa5b116100b0578063d9707d1a1161007f578063e60e711311610064578063e60e7113146106aa578063e985e9c5146106ca578063f2fde38b1461072057600080fd5b8063d9707d1a14610650578063e3d670d71461067d57600080fd5b8063bc22aa5b146105ab578063c87b56dd146105cb578063cbcc9bea146105eb578063ce6019b41461062357600080fd5b8063a22cb46511610107578063ad48d611116100ec578063ad48d61114610531578063b43e46ca1461056b578063b88d4fde1461058b57600080fd5b8063a22cb465146104fc578063a815a85d1461051c57600080fd5b806370a0823114610487578063715018a6146104a75780638da5cb5b146104bc57806395d89b41146104e757600080fd5b806342842e0e116101cb5780635a599da81161019a5780635e123add1161017f5780635e123add1461043f578063631f6d07146104545780636352211e1461046757600080fd5b80635a599da8146103ff5780635c3bd1411461041f57600080fd5b806342842e0e1461036f5780634f558e791461038f5780634f6ccce7146103bf5780635299df1b146103df57600080fd5b806317b47cc41161020757806317b47cc4146102e057806318160ddd1461031157806323b872dd1461032f5780632f745c591461034f57600080fd5b806301ffc9a71461023957806306fdde031461026f578063081812fc14610291578063095ea7b3146102be575b600080fd5b34801561024557600080fd5b5061025961025436600461398b565b610740565b6040516102669190614563565b60405180910390f35b34801561027b57600080fd5b50610284610751565b604051610266919061457f565b34801561029d57600080fd5b506102b16102ac366004613a94565b6107e3565b60405161026691906144e5565b3480156102ca57600080fd5b506102de6102d9366004613940565b610817565b005b3480156102ec57600080fd5b506103006102fb366004613a94565b610901565b604051610266959493929190614590565b34801561031d57600080fd5b50600a545b60405161026691906147c0565b34801561033b57600080fd5b506102de61034a366004613851565b610a6d565b34801561035b57600080fd5b5061032261036a366004613940565b610ab8565b34801561037b57600080fd5b506102de61038a366004613851565b610b31565b34801561039b57600080fd5b506102596103aa366004613a94565b60116020526000908152604090205460ff1681565b3480156103cb57600080fd5b506103226103da366004613a94565b610b4c565b3480156103eb57600080fd5b506102de6103fa3660046139fa565b610bdb565b34801561040b57600080fd5b506102de61041a366004613a94565b610db1565b34801561042b57600080fd5b5061028461043a366004613940565b610f58565b34801561044b57600080fd5b50600e54610322565b6102de610462366004613a94565b611011565b34801561047357600080fd5b506102b1610482366004613a94565b61145a565b34801561049357600080fd5b506103226104a23660046137fc565b6114b6565b3480156104b357600080fd5b506102de61152e565b3480156104c857600080fd5b5060005473ffffffffffffffffffffffffffffffffffffffff166102b1565b3480156104f357600080fd5b50610284611542565b34801561050857600080fd5b506102de610517366004613912565b611551565b34801561052857600080fd5b50610322611560565b34801561053d57600080fd5b5060145461055e9073ffffffffffffffffffffffffffffffffffffffff1681565b6040516102669190614571565b34801561057757600080fd5b506102de610586366004613ab1565b611570565b34801561059757600080fd5b506102de6105a636600461389c565b611737565b3480156105b757600080fd5b506103226105c63660046139c5565b611789565b3480156105d757600080fd5b506102846105e6366004613a94565b6117b1565b3480156105f757600080fd5b506103226106063660046139c5565b805160208183018101805160108252928201919093012091525481565b34801561062f57600080fd5b5061064361063e3660046137fc565b6117bc565b6040516102669190614552565b34801561065c57600080fd5b5061067061066b366004613a94565b611dcc565b60405161026691906147af565b34801561068957600080fd5b506103226106983660046137fc565b60126020526000908152604090205481565b3480156106b657600080fd5b506102de6106c5366004613a94565b61210f565b3480156106d657600080fd5b506102596106e5366004613819565b73ffffffffffffffffffffffffffffffffffffffff918216600090815260076020908152604080832093909416825291909152205460ff1690565b34801561072c57600080fd5b506102de61073b3660046137fc565b612194565b600061074b826121f5565b92915050565b6060600280546107609061495e565b80601f016020809104026020016040519081016040528092919081815260200182805461078c9061495e565b80156107d95780601f106107ae576101008083540402835291602001916107d9565b820191906000526020600020905b8154815290600101906020018083116107bc57829003601f168201915b5050505050905090565b60006107ee8261224b565b5060009081526006602052604090205473ffffffffffffffffffffffffffffffffffffffff1690565b60006108228261145a565b90508073ffffffffffffffffffffffffffffffffffffffff168373ffffffffffffffffffffffffffffffffffffffff161415610893576040517f08c379a000000000000000000000000000000000000000000000000000000000815260040161088a9061475f565b60405180910390fd5b3373ffffffffffffffffffffffffffffffffffffffff821614806108bc57506108bc81336106e5565b6108f2576040517f08c379a000000000000000000000000000000000000000000000000000000000815260040161088a9061471f565b6108fc83836122a6565b505050565b600f6020526000908152604090208054819061091c9061495e565b80601f01602080910402602001604051908101604052809291908181526020018280546109489061495e565b80156109955780601f1061096a57610100808354040283529160200191610995565b820191906000526020600020905b81548152906001019060200180831161097857829003601f168201915b5050505050908060010154908060020180546109b09061495e565b80601f01602080910402602001604051908101604052809291908181526020018280546109dc9061495e565b8015610a295780601f106109fe57610100808354040283529160200191610a29565b820191906000526020600020905b815481529060010190602001808311610a0c57829003601f168201915b5050506003909301549192505073ffffffffffffffffffffffffffffffffffffffff81169060ff740100000000000000000000000000000000000000009091041685565b610a773382612346565b610aad576040517f08c379a000000000000000000000000000000000000000000000000000000000815260040161088a9061478f565b6108fc838383612406565b6000610ac3836114b6565b8210610afb576040517f08c379a000000000000000000000000000000000000000000000000000000000815260040161088a9061461f565b5073ffffffffffffffffffffffffffffffffffffffff919091166000908152600860209081526040808320938352929052205490565b6108fc83838360405180602001604052806000815250611737565b6000610b57600a5490565b8210610b8f576040517f08c379a000000000000000000000000000000000000000000000000000000000815260040161088a9061477f565b600a8281548110610bc9577f4e487b7100000000000000000000000000000000000000000000000000000000600052603260045260246000fd5b90600052602060002001549050919050565b6000610be6600d5490565b905080601086604051610bf991906144c5565b90815260405190819003602001902055610c1381856125cd565b6000818152600f6020908152604090912086519091610c3691839189019061356f565b506003810180547fffffffffffffffffffffffff000000000000000000000000000000000000000016331790558351610c78906002830190602087019061356f565b50600181018390556003810180547fffffffffffffffffffffff00ffffffffffffffffffffffffffffffffffffffff1674010000000000000000000000000000000000000000179055610ccc333084612406565b610cd78260016125e1565b336000908152601260205260408120805491610cf2836149d0565b9091555050600082815260116020908152604080832080547fffffffffffffffffffffffffffffffffffffffffffffffffffffffffffffff0016600190811790915533845260138352908320805491820181558352918190208851610d5e93919091019189019061356f565b50610d6d600d80546001019055565b60405133907fe92a510f193b252a4f814e752097217cd0f1e42ef3ee3450b09ccaa8e955109890610da190849087906145ef565b60405180910390a2505050505050565b600081815260116020526040902054819060ff16610dfb576040517f08c379a000000000000000000000000000000000000000000000000000000000815260040161088a906146bf565b6000828152600f6020526040902060030154829073ffffffffffffffffffffffffffffffffffffffff163314610e5d576040517f08c379a000000000000000000000000000000000000000000000000000000000815260040161088a906146cf565b6000838152600f6020526040902060030154839074010000000000000000000000000000000000000000900460ff16610ec2576040517f08c379a000000000000000000000000000000000000000000000000000000000815260040161088a906146df565b6000848152600f60205260409020610edb303387612406565b6003810180547fffffffffffffffffffffff00ffffffffffffffffffffffffffffffffffffffff16905560006001820155610f178560026125e1565b60405133907f04f60a2088b6d2261ab6ef9f840156e2dc2e60cf543123e232a0d0112b12c0b790610f499084906145de565b60405180910390a25050505050565b60136020528160005260406000208181548110610f7457600080fd5b90600052602060002001600091509150508054610f909061495e565b80601f0160208091040260200160405190810160405280929190818152602001828054610fbc9061495e565b80156110095780601f10610fde57610100808354040283529160200191611009565b820191906000526020600020905b815481529060010190602001808311610fec57829003601f168201915b505050505081565b600081815260116020526040902054819060ff1661105b576040517f08c379a000000000000000000000000000000000000000000000000000000000815260040161088a906146bf565b6000828152600f6020526040902060030154829074010000000000000000000000000000000000000000900460ff166110c0576040517f08c379a000000000000000000000000000000000000000000000000000000000815260040161088a906146df565b600260015414156110fd576040517f08c379a000000000000000000000000000000000000000000000000000000000815260040161088a9061479f565b600260019081556000848152600f6020526040902090810154341461114e576040517f08c379a000000000000000000000000000000000000000000000000000000000815260040161088a9061467f565b600061115985612760565b9050600081836001015461116d919061489c565b60145460038501546040517fa9059cbb00000000000000000000000000000000000000000000000000000000815292935073ffffffffffffffffffffffffffffffffffffffff9182169263a9059cbb926111cd9216908590600401614537565b602060405180830381600087803b1580156111e757600080fd5b505af11580156111fb573d6000803e3d6000fd5b505050506040513d601f19601f8201168201806040525081019061121f919061396e565b611255576040517f08c379a000000000000000000000000000000000000000000000000000000000815260040161088a9061468f565b60145473ffffffffffffffffffffffffffffffffffffffff1663a9059cbb61129260005473ffffffffffffffffffffffffffffffffffffffff1690565b846040518363ffffffff1660e01b81526004016112b0929190614537565b602060405180830381600087803b1580156112ca57600080fd5b505af11580156112de573d6000803e3d6000fd5b505050506040513d601f19601f82011682018060405250810190611302919061396e565b611338576040517f08c379a000000000000000000000000000000000000000000000000000000000815260040161088a9061470f565b611343303388612406565b336000908152601360209081526040822080546001810182559083529120845491019084906113719061495e565b61137c9291906135f3565b50336000908152601260205260408120805491611398836149d0565b9091555050600383015473ffffffffffffffffffffffffffffffffffffffff1660009081526012602052604081208054916113d283614929565b9091555050600380840180547fffffffffffffffffffffff000000000000000000000000000000000000000000163317905561140f9087906125e1565b600183015460405133917fe93b1f7dfb2e21418b0b20d036f8f8dabe40abf7666a6fc7ec5c3b34409ad473916114469187916145ef565b60405180910390a250506001805550505050565b60008181526004602052604081205473ffffffffffffffffffffffffffffffffffffffff168061074b576040517f08c379a000000000000000000000000000000000000000000000000000000000815260040161088a9061474f565b600073ffffffffffffffffffffffffffffffffffffffff8216611505576040517f08c379a000000000000000000000000000000000000000000000000000000000815260040161088a906146ef565b5073ffffffffffffffffffffffffffffffffffffffff1660009081526005602052604090205490565b611536612845565b6115406000612896565b565b6060600380546107609061495e565b61155c33838361290b565b5050565b600061156b600d5490565b905090565b600084815260116020526040902054849060ff166115ba576040517f08c379a000000000000000000000000000000000000000000000000000000000815260040161088a906146bf565b6000858152600f6020526040902060030154859073ffffffffffffffffffffffffffffffffffffffff16331461161c576040517f08c379a000000000000000000000000000000000000000000000000000000000815260040161088a906146cf565b6000868152600f60205260409020600381015474010000000000000000000000000000000000000000900460ff1615611681576040517f08c379a000000000000000000000000000000000000000000000000000000000815260040161088a9061476f565b61168c333089612406565b61169a60028201878761366e565b5060018082018590556003820180547fffffffffffffffffffffff00ffffffffffffffffffffffffffffffffffffffff16740100000000000000000000000000000000000000001790556116ef9088906125e1565b600181015460405133917fc88d9d1d187e9c7c6b43aa26315dcb8e153d26d2a38b8ee50a4f831fd3da3205916117269185916145ef565b60405180910390a250505050505050565b6117413383612346565b611777576040517f08c379a000000000000000000000000000000000000000000000000000000000815260040161088a9061478f565b61178384848484612a0d565b50505050565b600060108260405161179b91906144c5565b9081526020016040518091039020549050919050565b606061074b82612a5a565b606073ffffffffffffffffffffffffffffffffffffffff821661180b576040517f08c379a000000000000000000000000000000000000000000000000000000000815260040161088a9061460f565b73ffffffffffffffffffffffffffffffffffffffff821660009081526012602052604081205467ffffffffffffffff811115611870577f4e487b7100000000000000000000000000000000000000000000000000000000600052604160045260246000fd5b6040519080825280602002602001820160405280156118f257816020015b6118df6040518060c00160405280606081526020016000815260200160608152602001600073ffffffffffffffffffffffffffffffffffffffff168152602001600015158152602001606081525090565b81526020019060019003908161188e5790505b5090506000805b73ffffffffffffffffffffffffffffffffffffffff8516600090815260136020526040902054811015611dc35773ffffffffffffffffffffffffffffffffffffffff85166000908152601360205260408120805483908110611984577f4e487b7100000000000000000000000000000000000000000000000000000000600052603260045260246000fd5b9060005260206000200180546119999061495e565b80601f01602080910402602001604051908101604052809291908181526020018280546119c59061495e565b8015611a125780601f106119e757610100808354040283529160200191611a12565b820191906000526020600020905b8154815290600101906020018083116119f557829003601f168201915b505050505090506000601082604051611a2b91906144c5565b90815260408051918290036020908101909220546000818152600f90935291206003015490915073ffffffffffffffffffffffffffffffffffffffff16331415611dae576000818152600f602052604090819020815160c08101909252805482908290611a979061495e565b80601f0160208091040260200160405190810160405280929190818152602001828054611ac39061495e565b8015611b105780601f10611ae557610100808354040283529160200191611b10565b820191906000526020600020905b815481529060010190602001808311611af357829003601f168201915b5050505050815260200160018201548152602001600282018054611b339061495e565b80601f0160208091040260200160405190810160405280929190818152602001828054611b5f9061495e565b8015611bac5780601f10611b8157610100808354040283529160200191611bac565b820191906000526020600020905b815481529060010190602001808311611b8f57829003601f168201915b5050509183525050600382015473ffffffffffffffffffffffffffffffffffffffff81166020808401919091527401000000000000000000000000000000000000000090910460ff161515604080840191909152600484018054825181850281018501909352808352606090940193919290919060009084015b82821015611d5357838290600052602060002090600402016040518060a0016040529081600082015481526020016001820160009054906101000a900460ff166003811115611c9e577f4e487b7100000000000000000000000000000000000000000000000000000000600052602160045260246000fd5b6003811115611cd6577f4e487b7100000000000000000000000000000000000000000000000000000000600052602160045260246000fd5b81526020016001820160019054906101000a900473ffffffffffffffffffffffffffffffffffffffff1673ffffffffffffffffffffffffffffffffffffffff1673ffffffffffffffffffffffffffffffffffffffff1681526020016002820154815260200160038201548152505081526020019060010190611c26565b5050505081525050858581518110611d94577f4e487b7100000000000000000000000000000000000000000000000000000000600052603260045260246000fd5b60200260200101819052508380611daa906149d0565b9450505b50508080611dbb906149d0565b9150506118f9565b50909392505050565b611e1d6040518060c00160405280606081526020016000815260200160608152602001600073ffffffffffffffffffffffffffffffffffffffff168152602001600015158152602001606081525090565b6000828152600f602052604090819020815160c08101909252805482908290611e459061495e565b80601f0160208091040260200160405190810160405280929190818152602001828054611e719061495e565b8015611ebe5780601f10611e9357610100808354040283529160200191611ebe565b820191906000526020600020905b815481529060010190602001808311611ea157829003601f168201915b5050505050815260200160018201548152602001600282018054611ee19061495e565b80601f0160208091040260200160405190810160405280929190818152602001828054611f0d9061495e565b8015611f5a5780601f10611f2f57610100808354040283529160200191611f5a565b820191906000526020600020905b815481529060010190602001808311611f3d57829003601f168201915b5050509183525050600382015473ffffffffffffffffffffffffffffffffffffffff81166020808401919091527401000000000000000000000000000000000000000090910460ff161515604080840191909152600484018054825181850281018501909352808352606090940193919290919060009084015b8282101561210157838290600052602060002090600402016040518060a0016040529081600082015481526020016001820160009054906101000a900460ff16600381111561204c577f4e487b7100000000000000000000000000000000000000000000000000000000600052602160045260246000fd5b6003811115612084577f4e487b7100000000000000000000000000000000000000000000000000000000600052602160045260246000fd5b81526020016001820160019054906101000a900473ffffffffffffffffffffffffffffffffffffffff1673ffffffffffffffffffffffffffffffffffffffff1673ffffffffffffffffffffffffffffffffffffffff1681526020016002820154815260200160038201548152505081526020019060010190611fd4565b505050915250909392505050565b612117612845565b600a811115612152576040517f08c379a000000000000000000000000000000000000000000000000000000000815260040161088a9061466f565b600e8190556040517f9f05019b28170e4df6898fc0e7ecc720db8d696ae9286d763d89c807c6a5e9ee906121899033908490614537565b60405180910390a150565b61219c612845565b73ffffffffffffffffffffffffffffffffffffffff81166121e9576040517f08c379a000000000000000000000000000000000000000000000000000000000815260040161088a9061463f565b6121f281612896565b50565b60007fffffffff0000000000000000000000000000000000000000000000000000000082167f780e9d6300000000000000000000000000000000000000000000000000000000148061074b575061074b82612b63565b60008181526004602052604090205473ffffffffffffffffffffffffffffffffffffffff166121f2576040517f08c379a000000000000000000000000000000000000000000000000000000000815260040161088a9061474f565b600081815260066020526040902080547fffffffffffffffffffffffff00000000000000000000000000000000000000001673ffffffffffffffffffffffffffffffffffffffff841690811790915581906123008261145a565b73ffffffffffffffffffffffffffffffffffffffff167f8c5be1e5ebec7d5bd14f71427d1e84f3dd0314c0f7b2291e5b200ac8c7c3b92560405160405180910390a45050565b6000806123528361145a565b90508073ffffffffffffffffffffffffffffffffffffffff168473ffffffffffffffffffffffffffffffffffffffff1614806123c0575073ffffffffffffffffffffffffffffffffffffffff80821660009081526007602090815260408083209388168352929052205460ff165b806123fe57508373ffffffffffffffffffffffffffffffffffffffff166123e6846107e3565b73ffffffffffffffffffffffffffffffffffffffff16145b949350505050565b8273ffffffffffffffffffffffffffffffffffffffff166124268261145a565b73ffffffffffffffffffffffffffffffffffffffff1614612473576040517f08c379a000000000000000000000000000000000000000000000000000000000815260040161088a9061464f565b73ffffffffffffffffffffffffffffffffffffffff82166124c0576040517f08c379a000000000000000000000000000000000000000000000000000000000815260040161088a9061469f565b6124cb838383612c46565b6124d66000826122a6565b73ffffffffffffffffffffffffffffffffffffffff8316600090815260056020526040812080546001929061250c90849061489c565b909155505073ffffffffffffffffffffffffffffffffffffffff82166000908152600560205260408120805460019290612547908490614833565b909155505060008181526004602052604080822080547fffffffffffffffffffffffff00000000000000000000000000000000000000001673ffffffffffffffffffffffffffffffffffffffff86811691821790925591518493918716917fddf252ad1be2c89b69c2b068fc378daa952ba7f163c4a11628f55a4df523b3ef91a4505050565b6125d73383612c51565b61155c8282612c6b565b6000828152600f6020908152604091829020600481018054845160a08101909552808552919391929091908101856003811115612647577f4e487b7100000000000000000000000000000000000000000000000000000000600052602160045260246000fd5b8152336020808301919091526001808701546040840152426060909301929092528354808301855560009485529381902083516004909502019384558201518382018054939493919290917fffffffffffffffffffffffffffffffffffffffffffffffffffffffffffffff0016908360038111156126ee577f4e487b7100000000000000000000000000000000000000000000000000000000600052602160045260246000fd5b0217905550604082015160018201805473ffffffffffffffffffffffffffffffffffffffff909216610100027fffffffffffffffffffffff0000000000000000000000000000000000000000ff9092169190911790556060820151600282015560809091015160039091015550505050565b600081815260116020526040812054829060ff166127aa576040517f08c379a000000000000000000000000000000000000000000000000000000000815260040161088a906146bf565b6000838152600f602052604090206003015474010000000000000000000000000000000000000000900460ff1661280d576040517f08c379a000000000000000000000000000000000000000000000000000000000815260040161088a906146df565b6000838152600f602052604081206001015461282b9060649061484b565b9050600e548161283b919061485f565b9250505b50919050565b60005473ffffffffffffffffffffffffffffffffffffffff163314611540576040517f08c379a000000000000000000000000000000000000000000000000000000000815260040161088a9061473f565b6000805473ffffffffffffffffffffffffffffffffffffffff8381167fffffffffffffffffffffffff0000000000000000000000000000000000000000831681178455604051919092169283917f8be0079c531659141344cd1fd0a4f28419497f9722a3daafe3b4186f6b6457e09190a35050565b8173ffffffffffffffffffffffffffffffffffffffff168373ffffffffffffffffffffffffffffffffffffffff161415612971576040517f08c379a000000000000000000000000000000000000000000000000000000000815260040161088a906146af565b73ffffffffffffffffffffffffffffffffffffffff8381166000818152600760209081526040808320948716808452949091529081902080547fffffffffffffffffffffffffffffffffffffffffffffffffffffffffffffff0016851515179055517f17307eab39ab6107e8899845ad3d59bd9653f200f220920489ca2b5937696c3190612a00908590614563565b60405180910390a3505050565b612a18848484612406565b612a2484848484612ce5565b611783576040517f08c379a000000000000000000000000000000000000000000000000000000000815260040161088a9061462f565b6060612a658261224b565b6000828152600c602052604081208054612a7e9061495e565b80601f0160208091040260200160405190810160405280929190818152602001828054612aaa9061495e565b8015612af75780601f10612acc57610100808354040283529160200191612af7565b820191906000526020600020905b815481529060010190602001808311612ada57829003601f168201915b505050505090506000612b1560408051602081019091526000815290565b9050805160001415612b28575092915050565b815115612b5a578082604051602001612b429291906144cf565b60405160208183030381529060405292505050919050565b61283b84612e8e565b60007fffffffff0000000000000000000000000000000000000000000000000000000082167f80ac58cd000000000000000000000000000000000000000000000000000000001480612bf657507fffffffff0000000000000000000000000000000000000000000000000000000082167f5b5e139f00000000000000000000000000000000000000000000000000000000145b8061074b57507f01ffc9a7000000000000000000000000000000000000000000000000000000007fffffffff0000000000000000000000000000000000000000000000000000000083161461074b565b6108fc838383612f02565b61155c828260405180602001604052806000815250613008565b60008281526004602052604090205473ffffffffffffffffffffffffffffffffffffffff16612cc6576040517f08c379a000000000000000000000000000000000000000000000000000000000815260040161088a906146ff565b6000828152600c6020908152604090912082516108fc9284019061356f565b600073ffffffffffffffffffffffffffffffffffffffff84163b15612e83576040517f150b7a0200000000000000000000000000000000000000000000000000000000815273ffffffffffffffffffffffffffffffffffffffff85169063150b7a0290612d5c9033908990889088906004016144f3565b602060405180830381600087803b158015612d7657600080fd5b505af1925050508015612dc4575060408051601f3d9081017fffffffffffffffffffffffffffffffffffffffffffffffffffffffffffffffe0168201909252612dc1918101906139a8565b60015b612e38573d808015612df2576040519150601f19603f3d011682016040523d82523d6000602084013e612df7565b606091505b508051612e30576040517f08c379a000000000000000000000000000000000000000000000000000000000815260040161088a9061462f565b805181602001fd5b7fffffffff00000000000000000000000000000000000000000000000000000000167f150b7a02000000000000000000000000000000000000000000000000000000001490506123fe565b506001949350505050565b6060612e998261224b565b6000612eb060408051602081019091526000815290565b90506000815111612ed05760405180602001604052806000815250612efb565b80612eda84613055565b604051602001612eeb9291906144cf565b6040516020818303038152906040525b9392505050565b73ffffffffffffffffffffffffffffffffffffffff8316612f6a57612f6581600a80546000838152600b60205260408120829055600182018355919091527fc65a7bb8d6351c1cf70c95a316cc6a92839c986682d98bc35f958f4883f9d2a80155565b612fa7565b8173ffffffffffffffffffffffffffffffffffffffff168373ffffffffffffffffffffffffffffffffffffffff1614612fa757612fa783826131d5565b73ffffffffffffffffffffffffffffffffffffffff8216612fcb576108fc8161328c565b8273ffffffffffffffffffffffffffffffffffffffff168273ffffffffffffffffffffffffffffffffffffffff16146108fc576108fc82826133b0565b6130128383613401565b61301f6000848484612ce5565b6108fc576040517f08c379a000000000000000000000000000000000000000000000000000000000815260040161088a9061462f565b60608161309557505060408051808201909152600181527f3000000000000000000000000000000000000000000000000000000000000000602082015290565b8160005b81156130bf57806130a9816149d0565b91506130b89050600a8361484b565b9150613099565b60008167ffffffffffffffff811115613101577f4e487b7100000000000000000000000000000000000000000000000000000000600052604160045260246000fd5b6040519080825280601f01601f19166020018201604052801561312b576020820181803683370190505b5090505b84156123fe5761314060018361489c565b915061314d600a86614a09565b613158906030614833565b60f81b818381518110613194577f4e487b7100000000000000000000000000000000000000000000000000000000600052603260045260246000fd5b60200101907effffffffffffffffffffffffffffffffffffffffffffffffffffffffffffff1916908160001a9053506131ce600a8661484b565b945061312f565b600060016131e2846114b6565b6131ec919061489c565b60008381526009602052604090205490915080821461324c5773ffffffffffffffffffffffffffffffffffffffff841660009081526008602090815260408083208584528252808320548484528184208190558352600990915290208190555b50600091825260096020908152604080842084905573ffffffffffffffffffffffffffffffffffffffff9094168352600881528383209183525290812055565b600a5460009061329e9060019061489c565b6000838152600b6020526040812054600a80549394509092849081106132ed577f4e487b7100000000000000000000000000000000000000000000000000000000600052603260045260246000fd5b9060005260206000200154905080600a8381548110613335577f4e487b7100000000000000000000000000000000000000000000000000000000600052603260045260246000fd5b6000918252602080832090910192909255828152600b9091526040808220849055858252812055600a805480613394577f4e487b7100000000000000000000000000000000000000000000000000000000600052603160045260246000fd5b6001900381819060005260206000200160009055905550505050565b60006133bb836114b6565b73ffffffffffffffffffffffffffffffffffffffff9093166000908152600860209081526040808320868452825280832085905593825260099052919091209190915550565b73ffffffffffffffffffffffffffffffffffffffff821661344e576040517f08c379a000000000000000000000000000000000000000000000000000000000815260040161088a9061472f565b60008181526004602052604090205473ffffffffffffffffffffffffffffffffffffffff16156134aa576040517f08c379a000000000000000000000000000000000000000000000000000000000815260040161088a9061465f565b6134b660008383612c46565b73ffffffffffffffffffffffffffffffffffffffff821660009081526005602052604081208054600192906134ec908490614833565b909155505060008181526004602052604080822080547fffffffffffffffffffffffff00000000000000000000000000000000000000001673ffffffffffffffffffffffffffffffffffffffff861690811790915590518392907fddf252ad1be2c89b69c2b068fc378daa952ba7f163c4a11628f55a4df523b3ef908290a45050565b82805461357b9061495e565b90600052602060002090601f01602090048101928261359d57600085556135e3565b82601f106135b657805160ff19168380011785556135e3565b828001600101855582156135e3579182015b828111156135e35782518255916020019190600101906135c8565b506135ef929150613700565b5090565b8280546135ff9061495e565b90600052602060002090601f01602090048101928261362157600085556135e3565b82601f1061363257805485556135e3565b828001600101855582156135e357600052602060002091601f016020900482015b828111156135e3578254825591600101919060010190613653565b82805461367a9061495e565b90600052602060002090601f01602090048101928261369c57600085556135e3565b82601f106136d3578280017fffffffffffffffffffffffffffffffffffffffffffffffffffffffffffffff008235161785556135e3565b828001600101855582156135e3579182015b828111156135e35782358255916020019190600101906136e5565b5b808211156135ef5760008155600101613701565b6000613728613723846147ea565b6147ce565b90508281526020810184848401111561374057600080fd5b61374b8482856148f1565b509392505050565b803561074b81614b18565b803561074b81614b2c565b805161074b81614b2c565b803561074b81614b34565b805161074b81614b34565b600082601f83011261379a578081fd5b81356123fe848260208601613715565b60008083601f8401126137bb578182fd5b50813567ffffffffffffffff8111156137d2578182fd5b6020830191508360018202830111156137ea57600080fd5b9250929050565b803561074b81614b5c565b60006020828403121561380d578081fd5b612efb83828401613753565b6000806040838503121561382b578081fd5b61383784828501613753565b9150602061384785828601613753565b9150509250929050565b600080600060608486031215613865578081fd5b61387185828601613753565b9250602061388186828701613753565b9250506040613892868287016137f1565b9150509250925092565b600080600080608085870312156138b1578081fd5b6138bd86828701613753565b935060206138cd87828801613753565b93505060406138de878288016137f1565b925050606085013567ffffffffffffffff8111156138fa578182fd5b6139068782880161378a565b91505092959194509250565b60008060408385031215613924578182fd5b61393084838501613753565b915060206138478582860161375e565b60008060408385031215613952578182fd5b61395e84838501613753565b91506020613847858286016137f1565b60006020828403121561397f578081fd5b612efb83828401613769565b60006020828403121561399c578081fd5b612efb83828401613774565b6000602082840312156139b9578081fd5b612efb8382840161377f565b6000602082840312156139d6578081fd5b8082013567ffffffffffffffff8111156139ee578182fd5b6123fe8482850161378a565b60008060008060808587031215613a0f578384fd5b8385013567ffffffffffffffff811115613a27578485fd5b613a338782880161378a565b945050602085013567ffffffffffffffff811115613a4f578384fd5b613a5b8782880161378a565b935050604085013567ffffffffffffffff811115613a77578283fd5b613a838782880161378a565b9250506060613906878288016137f1565b600060208284031215613aa5578081fd5b612efb838284016137f1565b60008060008060608587031215613ac6578182fd5b613ad2868387016137f1565b9350602085013567ffffffffffffffff811115613aed578283fd5b613af9878288016137aa565b93509350506040613906878288016137f1565b6000612efb83836143dd565b613b22828261446b565b5060a00190565b613b32816148b3565b82525050565b6000613b42825190565b80845260208401935083602082028501613b5c8560200190565b845b84811015613b8f5783830388528151613b778482613b0c565b93505060208201602098909801979150600101613b5e565b50909695505050505050565b6000613ba5825190565b8084526020938401938301825b82811015613bd7578151613bc68782613b18565b965050602082019150600101613bb2565b5093949350505050565b801515613b32565b6000613bf3825190565b808452602084019350613c0a8185602086016148fd565b601f017fffffffffffffffffffffffffffffffffffffffffffffffffffffffffffffffe0169290920192915050565b613b32816148db565b613b32816148e6565b6000613c55825190565b613c638185602086016148fd565b9290920192915050565b60008154613c7a8161495e565b808552602085019450600182168015613c9a5760018114613cca57613cf8565b7fffffffffffffffffffffffffffffffffffffffffffffffffffffffffffffff0083168652602086019350613cf8565b60008581526020902060005b83811015613cf257815488820152600190910190602001613cd6565b87019450505b50505092915050565b600f8152602081017f496e76616c696420616464726573730000000000000000000000000000000000815290505b60200190565b602b8152602081017f455243373231456e756d657261626c653a206f776e657220696e646578206f7581527f74206f6620626f756e6473000000000000000000000000000000000000000000602082015290505b60400190565b60328152602081017f4552433732313a207472616e7366657220746f206e6f6e20455243373231526581527f63656976657220696d706c656d656e746572000000000000000000000000000060208201529050613d89565b60268152602081017f4f776e61626c653a206e6577206f776e657220697320746865207a65726f206181527f646472657373000000000000000000000000000000000000000000000000000060208201529050613d89565b60258152602081017f4552433732313a207472616e736665722066726f6d20696e636f72726563742081527f6f776e657200000000000000000000000000000000000000000000000000000060208201529050613d89565b601c8152602081017f4552433732313a20746f6b656e20616c7265616479206d696e7465640000000081529050613d2f565b601c8152602081017f4665652063616e277420626520686967686572207468616e203130250000000081529050613d2f565b60108152602081017f414d4f554e545f4e4f545f455155414c0000000000000000000000000000000081529050613d2f565b60268152602081017f4661696c656420746f2073656e642072656d61696e696e6720746f206974656d81527f206f776e6572000000000000000000000000000000000000000000000000000060208201529050613d89565b60248152602081017f4552433732313a207472616e7366657220746f20746865207a65726f2061646481527f726573730000000000000000000000000000000000000000000000000000000060208201529050613d89565b60198152602081017f4552433732313a20617070726f766520746f2063616c6c65720000000000000081529050613d2f565b601a8152602081017f5175657279206f66206e6f6e6578697374656e7420746f6b656e00000000000081529050613d2f565b600f8152602081017f4f6e6c79206974656d206f776e6572000000000000000000000000000000000081529050613d2f565b60118152602081017f4974656d2069736e2774206c697374656400000000000000000000000000000081529050613d2f565b60298152602081017f4552433732313a2061646472657373207a65726f206973206e6f74206120766181527f6c6964206f776e6572000000000000000000000000000000000000000000000060208201529050613d89565b602e8152602081017f45524337323155524953746f726167653a2055524920736574206f66206e6f6e81527f6578697374656e7420746f6b656e00000000000000000000000000000000000060208201529050613d89565b601f8152602081017f4661696c656420746f2066656520746f20636f6e7472616374206f776e65720081529050613d2f565b603e8152602081017f4552433732313a20617070726f76652063616c6c6572206973206e6f7420746f81527f6b656e206f776e6572206e6f7220617070726f76656420666f7220616c6c000060208201529050613d89565b60208082527f4552433732313a206d696e7420746f20746865207a65726f20616464726573739101908152613d2f565b60208082527f4f776e61626c653a2063616c6c6572206973206e6f7420746865206f776e65729101908152613d2f565b60188152602081017f4552433732313a20696e76616c696420746f6b656e204944000000000000000081529050613d2f565b60218152602081017f4552433732313a20617070726f76616c20746f2063757272656e74206f776e6581527f720000000000000000000000000000000000000000000000000000000000000060208201529050613d89565b60138152602081017f4974656d20616c7265616479206c69737465640000000000000000000000000081529050613d2f565b602c8152602081017f455243373231456e756d657261626c653a20676c6f62616c20696e646578206f81527f7574206f6620626f756e6473000000000000000000000000000000000000000060208201529050613d89565b602e8152602081017f4552433732313a2063616c6c6572206973206e6f7420746f6b656e206f776e6581527f72206e6f7220617070726f76656400000000000000000000000000000000000060208201529050613d89565b601f8152602081017f5265656e7472616e637947756172643a207265656e7472616e742063616c6c0081529050613d2f565b805160c0808452600091908401906143f58282613be9565b915050602083015161440a60208601826144bf565b50604083015184820360408601526144228282613be9565b91505060608301516144376060860182613b29565b50608083015161444a6080860182613be1565b5060a083015184820360a08601526144628282613b9b565b95945050505050565b805161447783826144bf565b50602081015161448a6020840182613c42565b50604081015161449d6040840182613b29565b5060608101516144b060608401826144bf565b5060808101516108fc60808401825b80613b32565b61074b8183613c4b565b6144d98184613c4b565b9050612efb8183613c4b565b6020810161074b8284613b29565b608081016145018287613b29565b61450e6020830186613b29565b61451b60408301856144bf565b818103606083015261452d8184613be9565b9695505050505050565b604081016145458285613b29565b612efb60208301846144bf565b60208082528101612efb8184613b38565b6020810161074b8284613be1565b6020810161074b8284613c39565b60208082528101612efb8184613be9565b60a080825281016145a18188613be9565b90506145b060208301876144bf565b81810360408301526145c28186613be9565b90506145d16060830185613b29565b61452d6080830184613be1565b60208082528101612efb8184613c6d565b604080825281016146008185613c6d565b9050612efb60208301846144bf565b6020808252810161074b81613d01565b6020808252810161074b81613d35565b6020808252810161074b81613d8f565b6020808252810161074b81613de7565b6020808252810161074b81613e3f565b6020808252810161074b81613e97565b6020808252810161074b81613ec9565b6020808252810161074b81613efb565b6020808252810161074b81613f2d565b6020808252810161074b81613f85565b6020808252810161074b81613fdd565b6020808252810161074b8161400f565b6020808252810161074b81614041565b6020808252810161074b81614073565b6020808252810161074b816140a5565b6020808252810161074b816140fd565b6020808252810161074b81614155565b6020808252810161074b81614187565b6020808252810161074b816141df565b6020808252810161074b8161420f565b6020808252810161074b8161423f565b6020808252810161074b81614271565b6020808252810161074b816142c9565b6020808252810161074b816142fb565b6020808252810161074b81614353565b6020808252810161074b816143ab565b60208082528101612efb81846143dd565b6020810161074b82846144bf565b60006147d960405190565b90506147e58282614985565b919050565b600067ffffffffffffffff82111561480457614804614ad9565b7fffffffffffffffffffffffffffffffffffffffffffffffffffffffffffffffe0601f83011660200192915050565b6000821982111561484657614846614a1d565b500190565b60008261485a5761485a614a4c565b500490565b6000817fffffffffffffffffffffffffffffffffffffffffffffffffffffffffffffffff048311821515161561489757614897614a1d565b500290565b6000828210156148ae576148ae614a1d565b500390565b600073ffffffffffffffffffffffffffffffffffffffff821661074b565b806147e581614b08565b600061074b826148b3565b600061074b826148d1565b82818337506000910152565b60005b83811015614918578181015183820152602001614900565b838111156117835750506000910152565b60008161493857614938614a1d565b507fffffffffffffffffffffffffffffffffffffffffffffffffffffffffffffffff0190565b60028104600182168061497257607f821691505b6020821081141561283f5761283f614aaa565b7fffffffffffffffffffffffffffffffffffffffffffffffffffffffffffffffe0601f830116810181811067ffffffffffffffff821117156149c9576149c9614ad9565b6040525050565b60007fffffffffffffffffffffffffffffffffffffffffffffffffffffffffffffffff821415614a0257614a02614a1d565b5060010190565b600082614a1857614a18614a4c565b500690565b7f4e487b7100000000000000000000000000000000000000000000000000000000600052601160045260246000fd5b7f4e487b7100000000000000000000000000000000000000000000000000000000600052601260045260246000fd5b7f4e487b7100000000000000000000000000000000000000000000000000000000600052602160045260246000fd5b7f4e487b7100000000000000000000000000000000000000000000000000000000600052602260045260246000fd5b7f4e487b7100000000000000000000000000000000000000000000000000000000600052604160045260246000fd5b600481106121f2576121f2614a7b565b614b21816148b3565b81146121f257600080fd5b801515614b21565b7fffffffff000000000000000000000000000000000000000000000000000000008116614b21565b80614b2156fea2646970667358221220959255f837e5aaaad44ab926117e13d960c22deb5090d0ba7e9a35d05123d58d64736f6c63430008040033",
  "linkReferences": {},
  "deployedLinkReferences": {}
}